{
  "_format": "hh-sol-artifact-1",
  "contractName": "Liqudity",
  "sourceName": "contracts/Liquidity.sol",
  "abi": [
    {
      "inputs": [],
      "stateMutability": "nonpayable",
      "type": "constructor"
    },
    {
      "inputs": [
        {
          "internalType": "string",
          "name": "_tokenA",
          "type": "string"
        },
        {
          "internalType": "string",
          "name": "_tokenB",
          "type": "string"
        },
        {
          "internalType": "string",
          "name": "_tokenA_Address",
          "type": "string"
        },
        {
          "internalType": "string",
          "name": "_tokenB_Address",
          "type": "string"
        },
        {
          "internalType": "string",
          "name": "_poolAddress",
          "type": "string"
        },
        {
          "internalType": "string",
          "name": "_network",
          "type": "string"
        },
        {
          "internalType": "string",
          "name": "_transactionhash",
          "type": "string"
        }
      ],
      "name": "addLiquidity",
      "outputs": [],
      "stateMutability": "nonpayable",
      "type": "function"
    },
    {
      "inputs": [],
      "name": "admin",
      "outputs": [
        {
          "internalType": "address",
          "name": "",
          "type": "address"
        }
      ],
      "stateMutability": "view",
      "type": "function"
    },
    {
      "inputs": [
        {
          "internalType": "address",
          "name": "_address",
          "type": "address"
        }
      ],
      "name": "getAllLiquidity",
      "outputs": [
        {
          "components": [
            {
              "internalType": "uint256",
              "name": "id",
              "type": "uint256"
            },
            {
              "internalType": "address",
              "name": "owner",
              "type": "address"
            },
            {
              "internalType": "string",
              "name": "tokenA",
              "type": "string"
            },
            {
              "internalType": "string",
              "name": "tokenB",
              "type": "string"
            },
            {
              "internalType": "string",
              "name": "tokenA_Address",
              "type": "string"
            },
            {
              "internalType": "string",
              "name": "tokenB_Address",
              "type": "string"
            },
            {
              "internalType": "string",
              "name": "poolAddress",
              "type": "string"
            },
            {
              "internalType": "string",
              "name": "network",
              "type": "string"
            },
            {
              "internalType": "string",
              "name": "transactionHash",
              "type": "string"
            },
            {
              "internalType": "uint256",
              "name": "timeCreated",
              "type": "uint256"
            }
          ],
          "internalType": "struct Liqudity.LiquidityInfo[]",
          "name": "",
          "type": "tuple[]"
        }
      ],
      "stateMutability": "view",
      "type": "function"
    },
    {
      "inputs": [
        {
          "internalType": "address",
          "name": "",
          "type": "address"
        },
        {
          "internalType": "uint256",
          "name": "",
          "type": "uint256"
        }
      ],
      "name": "liquidities",
      "outputs": [
        {
          "internalType": "uint256",
          "name": "id",
          "type": "uint256"
        },
        {
          "internalType": "address",
          "name": "owner",
          "type": "address"
        },
        {
          "internalType": "string",
          "name": "tokenA",
          "type": "string"
        },
        {
          "internalType": "string",
          "name": "tokenB",
          "type": "string"
        },
        {
          "internalType": "string",
          "name": "tokenA_Address",
          "type": "string"
        },
        {
          "internalType": "string",
          "name": "tokenB_Address",
          "type": "string"
        },
        {
          "internalType": "string",
          "name": "poolAddress",
          "type": "string"
        },
        {
          "internalType": "string",
          "name": "network",
          "type": "string"
        },
        {
          "internalType": "string",
          "name": "transactionHash",
          "type": "string"
        },
        {
          "internalType": "uint256",
          "name": "timeCreated",
          "type": "uint256"
        }
      ],
      "stateMutability": "view",
      "type": "function"
    },
    {
      "inputs": [],
      "name": "liquidityID",
      "outputs": [
        {
          "internalType": "uint256",
          "name": "",
          "type": "uint256"
        }
      ],
      "stateMutability": "view",
      "type": "function"
    },
    {
      "inputs": [],
      "name": "transferEther",
      "outputs": [],
      "stateMutability": "payable",
      "type": "function"
    }
  ],
  "bytecode": "0x608060405234801561001057600080fd5b50336000806101000a81548173ffffffffffffffffffffffffffffffffffffffff021916908373ffffffffffffffffffffffffffffffffffffffff160217905550611a33806100606000396000f3fe6080604052600436106100555760003560e01c8063043b536b1461005a5780636e608d401461008357806392a5f2f0146100ae578063c9b25f0f146100eb578063d52559d0146100f5578063f851a4401461013b575b600080fd5b34801561006657600080fd5b50610081600480360381019061007c9190610f33565b610166565b005b34801561008f57600080fd5b5061009861034c565b6040516100a591906110b2565b60405180910390f35b3480156100ba57600080fd5b506100d560048036038101906100d0919061112b565b610352565b6040516100e291906113bb565b60405180910390f35b6100f3610859565b005b34801561010157600080fd5b5061011c60048036038101906101179190611409565b61096c565b6040516101329a999897969594939291906114a2565b60405180910390f35b34801561014757600080fd5b50610150610db5565b60405161015d919061156f565b60405180910390f35b60026000815480929190610179906115b9565b919050555060006002549050600160003373ffffffffffffffffffffffffffffffffffffffff1673ffffffffffffffffffffffffffffffffffffffff1681526020019081526020016000206040518061014001604052808381526020013373ffffffffffffffffffffffffffffffffffffffff1681526020018a81526020018981526020018881526020018781526020018681526020018581526020018481526020014281525090806001815401808255809150506001900390600052602060002090600a02016000909190919091506000820151816000015560208201518160010160006101000a81548173ffffffffffffffffffffffffffffffffffffffff021916908373ffffffffffffffffffffffffffffffffffffffff16021790555060408201518160020190816102af919061180d565b5060608201518160030190816102c5919061180d565b5060808201518160040190816102db919061180d565b5060a08201518160050190816102f1919061180d565b5060c0820151816006019081610307919061180d565b5060e082015181600701908161031d919061180d565b50610100820151816008019081610334919061180d565b50610120820151816009015550505050505050505050565b60025481565b6060600160008373ffffffffffffffffffffffffffffffffffffffff1673ffffffffffffffffffffffffffffffffffffffff168152602001908152602001600020805480602002602001604051908101604052809291908181526020016000905b8282101561084e57838290600052602060002090600a020160405180610140016040529081600082015481526020016001820160009054906101000a900473ffffffffffffffffffffffffffffffffffffffff1673ffffffffffffffffffffffffffffffffffffffff1673ffffffffffffffffffffffffffffffffffffffff16815260200160028201805461044790611630565b80601f016020809104026020016040519081016040528092919081815260200182805461047390611630565b80156104c05780601f10610495576101008083540402835291602001916104c0565b820191906000526020600020905b8154815290600101906020018083116104a357829003601f168201915b505050505081526020016003820180546104d990611630565b80601f016020809104026020016040519081016040528092919081815260200182805461050590611630565b80156105525780601f1061052757610100808354040283529160200191610552565b820191906000526020600020905b81548152906001019060200180831161053557829003601f168201915b5050505050815260200160048201805461056b90611630565b80601f016020809104026020016040519081016040528092919081815260200182805461059790611630565b80156105e45780601f106105b9576101008083540402835291602001916105e4565b820191906000526020600020905b8154815290600101906020018083116105c757829003601f168201915b505050505081526020016005820180546105fd90611630565b80601f016020809104026020016040519081016040528092919081815260200182805461062990611630565b80156106765780601f1061064b57610100808354040283529160200191610676565b820191906000526020600020905b81548152906001019060200180831161065957829003601f168201915b5050505050815260200160068201805461068f90611630565b80601f01602080910402602001604051908101604052809291908181526020018280546106bb90611630565b80156107085780601f106106dd57610100808354040283529160200191610708565b820191906000526020600020905b8154815290600101906020018083116106eb57829003601f168201915b5050505050815260200160078201805461072190611630565b80601f016020809104026020016040519081016040528092919081815260200182805461074d90611630565b801561079a5780601f1061076f5761010080835404028352916020019161079a565b820191906000526020600020905b81548152906001019060200180831161077d57829003601f168201915b505050505081526020016008820180546107b390611630565b80601f01602080910402602001604051908101604052809291908181526020018280546107df90611630565b801561082c5780601f106108015761010080835404028352916020019161082c565b820191906000526020600020905b81548152906001019060200180831161080f57829003601f168201915b50505050508152602001600982015481525050815260200190600101906103b3565b505050509050919050565b6000341161089c576040517f08c379a00000000000000000000000000000000000000000000000000000000081526004016108939061192b565b60405180910390fd5b60008060009054906101000a900473ffffffffffffffffffffffffffffffffffffffff1673ffffffffffffffffffffffffffffffffffffffff16346040516108e39061197c565b60006040518083038185875af1925050503d8060008114610920576040519150601f19603f3d011682016040523d82523d6000602084013e610925565b606091505b5050905080610969576040517f08c379a0000000000000000000000000000000000000000000000000000000008152600401610960906119dd565b60405180910390fd5b50565b6001602052816000526040600020818154811061098857600080fd5b90600052602060002090600a0201600091509150508060000154908060010160009054906101000a900473ffffffffffffffffffffffffffffffffffffffff16908060020180546109d890611630565b80601f0160208091040260200160405190810160405280929190818152602001828054610a0490611630565b8015610a515780601f10610a2657610100808354040283529160200191610a51565b820191906000526020600020905b815481529060010190602001808311610a3457829003601f168201915b505050505090806003018054610a6690611630565b80601f0160208091040260200160405190810160405280929190818152602001828054610a9290611630565b8015610adf5780601f10610ab457610100808354040283529160200191610adf565b820191906000526020600020905b815481529060010190602001808311610ac257829003601f168201915b505050505090806004018054610af490611630565b80601f0160208091040260200160405190810160405280929190818152602001828054610b2090611630565b8015610b6d5780601f10610b4257610100808354040283529160200191610b6d565b820191906000526020600020905b815481529060010190602001808311610b5057829003601f168201915b505050505090806005018054610b8290611630565b80601f0160208091040260200160405190810160405280929190818152602001828054610bae90611630565b8015610bfb5780601f10610bd057610100808354040283529160200191610bfb565b820191906000526020600020905b815481529060010190602001808311610bde57829003601f168201915b505050505090806006018054610c1090611630565b80601f0160208091040260200160405190810160405280929190818152602001828054610c3c90611630565b8015610c895780601f10610c5e57610100808354040283529160200191610c89565b820191906000526020600020905b815481529060010190602001808311610c6c57829003601f168201915b505050505090806007018054610c9e90611630565b80601f0160208091040260200160405190810160405280929190818152602001828054610cca90611630565b8015610d175780601f10610cec57610100808354040283529160200191610d17565b820191906000526020600020905b815481529060010190602001808311610cfa57829003601f168201915b505050505090806008018054610d2c90611630565b80601f0160208091040260200160405190810160405280929190818152602001828054610d5890611630565b8015610da55780601f10610d7a57610100808354040283529160200191610da5565b820191906000526020600020905b815481529060010190602001808311610d8857829003601f168201915b505050505090806009015490508a565b60008054906101000a900473ffffffffffffffffffffffffffffffffffffffff1681565b6000604051905090565b600080fd5b600080fd5b600080fd5b600080fd5b6000601f19601f8301169050919050565b7f4e487b7100000000000000000000000000000000000000000000000000000000600052604160045260246000fd5b610e4082610df7565b810181811067ffffffffffffffff82111715610e5f57610e5e610e08565b5b80604052505050565b6000610e72610dd9565b9050610e7e8282610e37565b919050565b600067ffffffffffffffff821115610e9e57610e9d610e08565b5b610ea782610df7565b9050602081019050919050565b82818337600083830152505050565b6000610ed6610ed184610e83565b610e68565b905082815260208101848484011115610ef257610ef1610df2565b5b610efd848285610eb4565b509392505050565b600082601f830112610f1a57610f19610ded565b5b8135610f2a848260208601610ec3565b91505092915050565b600080600080600080600060e0888a031215610f5257610f51610de3565b5b600088013567ffffffffffffffff811115610f7057610f6f610de8565b5b610f7c8a828b01610f05565b975050602088013567ffffffffffffffff811115610f9d57610f9c610de8565b5b610fa98a828b01610f05565b965050604088013567ffffffffffffffff811115610fca57610fc9610de8565b5b610fd68a828b01610f05565b955050606088013567ffffffffffffffff811115610ff757610ff6610de8565b5b6110038a828b01610f05565b945050608088013567ffffffffffffffff81111561102457611023610de8565b5b6110308a828b01610f05565b93505060a088013567ffffffffffffffff81111561105157611050610de8565b5b61105d8a828b01610f05565b92505060c088013567ffffffffffffffff81111561107e5761107d610de8565b5b61108a8a828b01610f05565b91505092959891949750929550565b6000819050919050565b6110ac81611099565b82525050565b60006020820190506110c760008301846110a3565b92915050565b600073ffffffffffffffffffffffffffffffffffffffff82169050919050565b60006110f8826110cd565b9050919050565b611108816110ed565b811461111357600080fd5b50565b600081359050611125816110ff565b92915050565b60006020828403121561114157611140610de3565b5b600061114f84828501611116565b91505092915050565b600081519050919050565b600082825260208201905092915050565b6000819050602082019050919050565b61118d81611099565b82525050565b61119c816110ed565b82525050565b600081519050919050565b600082825260208201905092915050565b60005b838110156111dc5780820151818401526020810190506111c1565b60008484015250505050565b60006111f3826111a2565b6111fd81856111ad565b935061120d8185602086016111be565b61121681610df7565b840191505092915050565b60006101408301600083015161123a6000860182611184565b50602083015161124d6020860182611193565b506040830151848203604086015261126582826111e8565b9150506060830151848203606086015261127f82826111e8565b9150506080830151848203608086015261129982826111e8565b91505060a083015184820360a08601526112b382826111e8565b91505060c083015184820360c08601526112cd82826111e8565b91505060e083015184820360e08601526112e782826111e8565b91505061010083015184820361010086015261130382826111e8565b91505061012083015161131a610120860182611184565b508091505092915050565b60006113318383611221565b905092915050565b6000602082019050919050565b600061135182611158565b61135b8185611163565b93508360208202850161136d85611174565b8060005b858110156113a9578484038952815161138a8582611325565b945061139583611339565b925060208a01995050600181019050611371565b50829750879550505050505092915050565b600060208201905081810360008301526113d58184611346565b905092915050565b6113e681611099565b81146113f157600080fd5b50565b600081359050611403816113dd565b92915050565b600080604083850312156114205761141f610de3565b5b600061142e85828601611116565b925050602061143f858286016113f4565b9150509250929050565b611452816110ed565b82525050565b600082825260208201905092915050565b6000611474826111a2565b61147e8185611458565b935061148e8185602086016111be565b61149781610df7565b840191505092915050565b6000610140820190506114b8600083018d6110a3565b6114c5602083018c611449565b81810360408301526114d7818b611469565b905081810360608301526114eb818a611469565b905081810360808301526114ff8189611469565b905081810360a08301526115138188611469565b905081810360c08301526115278187611469565b905081810360e083015261153b8186611469565b90508181036101008301526115508185611469565b90506115606101208301846110a3565b9b9a5050505050505050505050565b60006020820190506115846000830184611449565b92915050565b7f4e487b7100000000000000000000000000000000000000000000000000000000600052601160045260246000fd5b60006115c482611099565b91507fffffffffffffffffffffffffffffffffffffffffffffffffffffffffffffffff82036115f6576115f561158a565b5b600182019050919050565b7f4e487b7100000000000000000000000000000000000000000000000000000000600052602260045260246000fd5b6000600282049050600182168061164857607f821691505b60208210810361165b5761165a611601565b5b50919050565b60008190508160005260206000209050919050565b60006020601f8301049050919050565b600082821b905092915050565b6000600883026116c37fffffffffffffffffffffffffffffffffffffffffffffffffffffffffffffffff82611686565b6116cd8683611686565b95508019841693508086168417925050509392505050565b6000819050919050565b600061170a61170561170084611099565b6116e5565b611099565b9050919050565b6000819050919050565b611724836116ef565b61173861173082611711565b848454611693565b825550505050565b600090565b61174d611740565b61175881848461171b565b505050565b5b8181101561177c57611771600082611745565b60018101905061175e565b5050565b601f8211156117c15761179281611661565b61179b84611676565b810160208510156117aa578190505b6117be6117b685611676565b83018261175d565b50505b505050565b600082821c905092915050565b60006117e4600019846008026117c6565b1980831691505092915050565b60006117fd83836117d3565b9150826002028217905092915050565b611816826111a2565b67ffffffffffffffff81111561182f5761182e610e08565b5b6118398254611630565b611844828285611780565b600060209050601f8311600181146118775760008415611865578287015190505b61186f85826117f1565b8655506118d7565b601f19841661188586611661565b60005b828110156118ad57848901518255600182019150602085019450602081019050611888565b868310156118ca57848901516118c6601f8916826117d3565b8355505b6001600288020188555050505b505050505050565b7f416d6f756e742073686f756c642062652067726561746572207468616e203000600082015250565b6000611915601f83611458565b9150611920826118df565b602082019050919050565b6000602082019050818103600083015261194481611908565b9050919050565b600081905092915050565b50565b600061196660008361194b565b915061197182611956565b600082019050919050565b600061198782611959565b9150819050919050565b7f5472616e73666572206661696c65640000000000000000000000000000000000600082015250565b60006119c7600f83611458565b91506119d282611991565b602082019050919050565b600060208201905081810360008301526119f6816119ba565b905091905056fea26469706673582212203f88d135cef845beffd3e625b64dcc36a7e3b7adf7946d685defc701ea37eae064736f6c63430008110033",
  "linkReferences": {},
  "deployedLinkReferences": {}
}